:030000000204C334
:0C04C300787FE4F6D8FD75815502050A2B
:03000300DFFE22FB
:10000E00AE07AF061EEF600C7FF51200037FF512F0
:05001E00000380EE224A
:0C0765002A2A2A2A2A0023232323230007
:1006AC00043700000000012400012300013B00027C
:0706BC0035000002210000DF
:10035E001207281206F07F6412000E120622E4FF26
:10036E0012064FBFE5047F0580027F0312000EE5E3
:10037E0023B401FBE4F52312054F0522E52270029A
:10038E0005217F007E807D097C44AB4DAA4CA94B94
:10039E00A84A12012C4019AF51AE50AD4FAC4E12BF
:1003AE0001D712077DD3EF94EEEE6480948240085D
:1003BE000536E53670020535C3E5229405E5219430
:1003CE00004028D3E5369401E5359400400DE52430
:1003DE007002F53B752401C2A18007E4F524F53BBC
:1003EE00D2A1E4F535F536F521F522E524B4011553
:1003FE00E53BC39401400E7BFF7A0779657D0512BC
:10040E0005F302037D7BFF7A07796B7D051205F3F9
:03041E0002037D59
:10072800438901758CB1758AE0D2AFD2A9D28C22E7
:1006F000759850438920758DFD858D8BD28ED2AF34
:03070000D2AC2256
:10069100E4F50D8F99209910E50DC3946450090577
:0A06A1000D7F0A12000380EDC299DC
:0106AB00222C
:0805F3008B088A09890A8D0BAF
:1005FB00E4F50CE50CC3950B501CAB08AA09A90A32
:10060B00120258FF1206917401250AF50AE4350906
:06061B00F509050C80DD6D
:0106210022B6
:03000B00020421CB
:10042100C0E0C0F0C083C082C0D075D000C000C0A1
:1004310001C002C003C004C005C006C007758CB16D
:10044100758AE0E53A2401F53AE43539F539E435C0
:1004510038F538E43537F537E47B0AFAF9F8AF3A7D
:10046100AE39AD38AC371202ADAC00AD01AE02AF62
:1004710003E4FBFAF9F8C312034D702B7523017BDA
:1004810032F8AF3AAE39AD38AC371202ADAC00AD8F
:1004910001AE02AF03E4FBFAF9F8C312034D700792
:1004A100E524B40102053BD007D006D005D004D025
:1004B10003D002D001D000D0D0D082D083D0F0D0F0
:0204C100E03227
:0300230002078948
:0B078900309802C298309902C29932E9
:06070300EF25E0FFD29299
:0D07090000000000000000000000000022C1
:0E0738007F307E02EF1FAC0670011E4C70F683
:010746002290
:0F074700D293D292120709C293120709C29222CB
:0C077100C293D292120709D2930207092A
:0F075600EF24FF9293D292120709C29202070971
:1006DC00D292120709A2939200C292120709A200A9
:0306EC00E433FFF5
:0106EF0022E8
:050671001207477FA6FF
:10067600E4FEEF30E704D2938002C293120703C26E
:0B068600921207090EBE08EA0206DC13
:1006C400E4FFD293FE120703A293E4334207C292DB
:0706D4001207090EBE08EE3B
:0106DB0022FC
:10071600AC07120671AF04120676AF051206760212
:02072600077159
:02064F00AD07F5
:10065100120671AF051206761207477FA7120676BA
:0F0661001206C4AE077F01120756120771AF06CB
:010670002267
:1005C2001206717F321206761207477FA71206764D
:1005D200E4FD1206C474422DF8A607BD05047F018E
:1005E2008002E4FF1207560DBD06E71207710207EB
:0105F20038D0
:100622007D0B7F311207167D087F2C1207167F2D56
:100632001207167D807F2E120716E4FD7F1E120719
:0D064200167F1F1207167D057F2002071688
:10054F001205C2E543FE7C00E42542FFEC3EFEAD02
:10055F0007FC12019E7B9A7A9979797840120026CE
:10056F008F4D8E4C8D4B8C4AE545FE7C00E4254427
:10057F00FFEC3EFEAD07FC12019E7B9A7A997979CA
:10058F0078401200268F518E508D4F8C4EE547FECE
:10059F007C00E42546FFEC3EFEAD07FC12019E7B7E
:1005AF009A7A99797978401200268F558E548D5307
:0205BF008C525C
:0105C1002217
:10002600EC4D6011E8497017ED33EC3304600DE4D4
:10003600FCFFFEFD22E933E8330470F802024312A6
:10004600020E58046009E4CC2481500628500902A7
:10005600024D28400302024AC0E0EB4A7044B980D0
:1000660006D0E0FB020239EF4E701CBD8008EBFFA4
:10007600EAFEE9FD80EBE98DF0A4FEE5F002010F52
:10008600E9CDF9EAFEEBFFEF89F0A4FCE5F0CE89B5
:10009600F0A42EFFE435F0CD89F0A42DFEE435F072
:1000A6008067EF4E7005BD80D780C3EF8BF0A4ACA0
:1000B600F0EE8BF0A42CFCE435F0F8EF8AF0A42CDB
:1000C600E5F038FCE433CB8DF0A42CFCE5F03BF8EE
:1000D600EE8AF0A42CFCE5F038F8E433CF89F0A4DE
:1000E6002CFCE5F038CF3400CE89F0A42FFFE5F0E4
:1000F6003EFEE433C98DF0A42EFEE5F039CD8AF03C
:10010600A42FFFE5F03EFEE43DFD33D0E0FB5007B3
:100116000BBB000F02024DEC2CFCEF33FFEE33FE5F
:06012600ED33FD0202258D
:10012C0074F8CC6480CCC86480C8F582046043C386
:10013C00EB9FF5F0EA9E42F0E99D42F0E89C45F019
:10014C0060305018E5825FFFE582F42B5582FB503E
:10015C00210ABA001D09B90019088016E5825BFB5B
:10016C00E582F42F5582FF50090EBE00050DBD002F
:10017C00010CC3EB9FF5F0EA9E42F0E99D42F0E8DA
:0D018C009C45F06007CC4820E701B3EC2251
:1001990075F020800E75F010800575F0087D007EE1
:1001A900007F003392D530D50312033FEC33401062
:1001B900EF33FFEE33FEED33FDEC33FCD5F0ED22EA
:0E01C900E5F0247EA2D513CC92E7CDCEFF2226
:1001D700EDD2E7CD33EC3392D524814006E4FFFE20
:1001E700FDFC22FCE4CFCECDCC24E0501174FF807F
:1001F700EDC3CC13CCCD13CDCE13CECF13CF04701C
:07020700F030D5DE02033FD9
:10020E00E9D2E7C933E833F892D5EDD2E7CD33EC36
:07021E0033FC5002B2D522AF
:10022500EC30E7100FBF000C0EBE00080DBD00043A
:100235000BEB6014A2D5EB13FCED92E7FD2274FFE6
:10024500FCFDFEFF22E480F8A2D574FF13FC7D803F
:03025500E480EF53
:1004CF0002035EE493A3F8E493A34003F68001F2E2
:1004DF0008DFF48029E493A3F85407240CC8C3332E
:1004EF00C4540F4420C8834004F456800146F6DFFD
:1004FF00E4800B01020408102040809006ACE47EDB
:10050F00019360BCA3FF543F30E509541FFEE493F1
:10051F00A360010ECF54C025E060A840B8E493A3B8
:10052F00FAE493A3F8E493A3C8C582C8CAC583CAE3
:10053F00F0A3C8C582C8CAC583CADFE9DEE780BE9B
:0106C3000036
:10025800BB010689828A83E0225002E722BBFE02A4
:09026800E32289828A83E49322D7
:1002710075F008758200EF2FFFEE33FECD33CDCC44
:1002810033CCC58233C5829BED9AEC99E5829840C7
:100291000CF582EE9BFEED9AFDEC99FC0FD5F0D6A4
:1002A100E4CEFBE4CDFAE4CCF9A88222B800C1B9CE
:1002B1000059BA002DEC8BF084CFCECDFCE5F0CB0C
:1002C100F97818EF2FFFEE33FEED33FDEC33FCEB45
:1002D10033FB10D703994004EB99FB0FD8E5E4F900
:1002E100FA227818EF2FFFEE33FEED33FDEC33FCED
:1002F100C933C910D7059BE99A4007EC9BFCE99AE1
:10030100F90FD8E0E4C9FAE4CCFB2275F010EF2F25
:10031100FFEE33FEED33FDCC33CCC833C810D70725
:100321009BEC9AE899400AED9BFDEC9AFCE899F860
:0E0331000FD5F0DAE4CDFBE4CCFAE4C8F922F3
:0E033F00C3E49FFFE49EFEE49DFDE49CFC22CF
:10034D00EB9FF5F0EA9E42F0E99D42F0E89C45F006
:01035D00227D
:0C077D00EE30E707C3E49FFFE49EFE227D
:00000001FF
