:0300000002011EDC
:0C011E00787FE4F6D8FD758113020165BE
:03000300DFFE22FB
:10000E00AE07AF061EEF600C7FF51200037FF512F0
:05001E00000380EE224A
:0B02EE007265616479206F6B202100B5
:0C02E100040900000000010D00010800ED
:100253001202D11202BE7F6412000E7BFF7A027972
:10026300EE7D0A120224E508B401FBE4F508E50D6E
:0B027300B40104B2A080EFD2A080EB29
:1002D100438901758CB1758AE0D2AFD2A9D28C2243
:1002BE00759850438920758DFD858D8BD28ED2AF6A
:0302CE00D2AC228D
:1002A300E4F5138F99209910E513C394645009055D
:0A02B300137F0A12000380EDC299C8
:0102BD00221E
:080224008B0E8A0F89108D1169
:10022C00E4F512E512C39511501CAB0EAA0FA910E0
:10023C00120026FF1202A374012510F510E4350FED
:06024C00F50F051280DD34
:010252002289
:03000B000201AA45
:1001AA00C0E0C0F0C083C082C0D075D000C000C01B
:1001BA0001C002C003C004C005C006C007758CB1E7
:1001CA00758AE0E50C2401F50CE4350BF50BE435F2
:1001DA000AF50AE43509F509E47B0AFAF9F8AF0CDD
:1001EA00AE0BAD0AAC0912007BAC00AD01AE02AF9A
:1001FA0003E4FBFAF9F8C312010D7003750801D084
:10020A0007D006D005D004D003D002D001D000D048
:0A021A00D0D082D083D0F0D0E032C3
:0300230002027E58
:10027E00C0E0C0D0309814C298E599B42A05750D27
:10028E00018008E599B42303750D00309902C299D7
:05029E00D0D0D0E032D9
:10012A00020253E493A3F8E493A34003F68001F296
:10013A0008DFF48029E493A3F85407240CC8C333D6
:10014A00C4540F4420C8834004F456800146F6DFA5
:10015A00E4800B01020408102040809002E1E47E52
:10016A00019360BCA3FF543F30E509541FFEE4939A
:10017A00A360010ECF54C025E060A840B8E493A361
:10018A00FAE493A3F8E493A3C8C582C8CAC583CA8C
:10019A00F0A3C8C582C8CAC583CADFE9DEE780BE44
:0102ED000010
:10002600BB010689828A83E0225002E722BBFE02D8
:09003600E32289828A83E493220B
:10003F0075F008758200EF2FFFEE33FECD33CDCC78
:10004F0033CCC58233C5829BED9AEC99E5829840FB
:10005F000CF582EE9BFEED9AFDEC99FC0FD5F0D6D8
:10006F00E4CEFBE4CDFAE4CCF9A88222B800C1B902
:10007F000059BA002DEC8BF084CFCECDFCE5F0CB40
:10008F00F97818EF2FFFEE33FEED33FDEC33FCEB79
:10009F0033FB10D703994004EB99FB0FD8E5E4F934
:1000AF00FA227818EF2FFFEE33FEED33FDEC33FC21
:1000BF00C933C910D7059BE99A4007EC9BFCE99A15
:1000CF00F90FD8E0E4C9FAE4CCFB2275F010EF2F5A
:1000DF00FFEE33FEED33FDCC33CCC833C810D7075A
:1000EF009BEC9AE899400AED9BFDEC9AFCE899F895
:0E00FF000FD5F0DAE4CDFBE4CCFAE4C8F92228
:10010D00EB9FF5F0EA9E42F0E99D42F0E89C45F048
:01011D0022BF
:00000001FF
